{
  "contractName": "CertificateStorage",
  "abi": [
    {
      "constant": true,
      "inputs": [
        {
          "name": "",
          "type": "bytes32"
        }
      ],
      "name": "revokeList",
      "outputs": [
        {
          "name": "",
          "type": "bool"
        }
      ],
      "payable": false,
      "stateMutability": "view",
      "type": "function",
      "signature": "0x1876d645"
    },
    {
      "constant": true,
      "inputs": [
        {
          "name": "",
          "type": "address"
        }
      ],
      "name": "issuers",
      "outputs": [
        {
          "name": "",
          "type": "bool"
        }
      ],
      "payable": false,
      "stateMutability": "view",
      "type": "function",
      "signature": "0x38a7543e"
    },
    {
      "constant": true,
      "inputs": [],
      "name": "owner",
      "outputs": [
        {
          "name": "",
          "type": "address"
        }
      ],
      "payable": false,
      "stateMutability": "view",
      "type": "function",
      "signature": "0x8da5cb5b"
    },
    {
      "constant": false,
      "inputs": [
        {
          "name": "_newOwner",
          "type": "address"
        }
      ],
      "name": "transferOwnership",
      "outputs": [],
      "payable": false,
      "stateMutability": "nonpayable",
      "type": "function",
      "signature": "0xf2fde38b"
    },
    {
      "constant": true,
      "inputs": [
        {
          "name": "",
          "type": "address"
        },
        {
          "name": "",
          "type": "bytes32"
        }
      ],
      "name": "data",
      "outputs": [
        {
          "name": "",
          "type": "bool"
        }
      ],
      "payable": false,
      "stateMutability": "view",
      "type": "function",
      "signature": "0xfaeba257"
    },
    {
      "inputs": [],
      "payable": false,
      "stateMutability": "nonpayable",
      "type": "constructor",
      "signature": "constructor"
    },
    {
      "anonymous": false,
      "inputs": [
        {
          "indexed": false,
          "name": "fileHash",
          "type": "bytes32"
        }
      ],
      "name": "DataEdited",
      "type": "event",
      "signature": "0xbc4708dec4a51b472c7182f3f1d89297a6e992c8e05923997bd46391cfb981b5"
    },
    {
      "anonymous": false,
      "inputs": [
        {
          "indexed": false,
          "name": "_newIssuer",
          "type": "address"
        }
      ],
      "name": "IssuerEdited",
      "type": "event",
      "signature": "0x41e54a7a691fc991264d18e29b8b7f13738cb8d00c886e76b5165795a184ab51"
    },
    {
      "anonymous": false,
      "inputs": [
        {
          "indexed": false,
          "name": "fileHash",
          "type": "bytes32"
        }
      ],
      "name": "CertificateRevoked",
      "type": "event",
      "signature": "0x44d80a438cb4fa3b5aedbe551ce3d9382e37f446917b783e1dee70a03b4180e3"
    },
    {
      "anonymous": false,
      "inputs": [
        {
          "indexed": true,
          "name": "previousOwner",
          "type": "address"
        },
        {
          "indexed": true,
          "name": "newOwner",
          "type": "address"
        }
      ],
      "name": "OwnershipTransferred",
      "type": "event",
      "signature": "0x8be0079c531659141344cd1fd0a4f28419497f9722a3daafe3b4186f6b6457e0"
    },
    {
      "constant": false,
      "inputs": [
        {
          "name": "_fileHash",
          "type": "bytes32"
        }
      ],
      "name": "setData",
      "outputs": [],
      "payable": false,
      "stateMutability": "nonpayable",
      "type": "function",
      "signature": "0x41657ee6"
    },
    {
      "constant": false,
      "inputs": [
        {
          "name": "_newIssuer",
          "type": "address"
        }
      ],
      "name": "setIssuer",
      "outputs": [],
      "payable": false,
      "stateMutability": "nonpayable",
      "type": "function",
      "signature": "0x55cc4e57"
    },
    {
      "constant": false,
      "inputs": [
        {
          "name": "_fileHash",
          "type": "bytes32"
        }
      ],
      "name": "revokeCertificate",
      "outputs": [],
      "payable": false,
      "stateMutability": "nonpayable",
      "type": "function",
      "signature": "0xc6cbc52a"
    }
  ],
  "bytecode": "0x608060405234801561001057600080fd5b50336000806101000a81548173ffffffffffffffffffffffffffffffffffffffff021916908373ffffffffffffffffffffffffffffffffffffffff160217905550610869806100606000396000f3fe60806040526004361061008e576000357c0100000000000000000000000000000000000000000000000000000000900463ffffffff1680631876d6451461009357806338a7543e146100e657806341657ee61461014f57806355cc4e571461018a5780638da5cb5b146101db578063c6cbc52a14610232578063f2fde38b1461026d578063faeba257146102be575b600080fd5b34801561009f57600080fd5b506100cc600480360360208110156100b657600080fd5b8101908080359060200190929190505050610331565b604051808215151515815260200191505060405180910390f35b3480156100f257600080fd5b506101356004803603602081101561010957600080fd5b81019080803573ffffffffffffffffffffffffffffffffffffffff169060200190929190505050610351565b604051808215151515815260200191505060405180910390f35b34801561015b57600080fd5b506101886004803603602081101561017257600080fd5b8101908080359060200190929190505050610371565b005b34801561019657600080fd5b506101d9600480360360208110156101ad57600080fd5b81019080803573ffffffffffffffffffffffffffffffffffffffff169060200190929190505050610472565b005b3480156101e757600080fd5b506101f061058b565b604051808273ffffffffffffffffffffffffffffffffffffffff1673ffffffffffffffffffffffffffffffffffffffff16815260200191505060405180910390f35b34801561023e57600080fd5b5061026b6004803603602081101561025557600080fd5b81019080803590602001909291905050506105b0565b005b34801561027957600080fd5b506102bc6004803603602081101561029057600080fd5b81019080803573ffffffffffffffffffffffffffffffffffffffff169060200190929190505050610675565b005b3480156102ca57600080fd5b50610317600480360360408110156102e157600080fd5b81019080803573ffffffffffffffffffffffffffffffffffffffff1690602001909291908035906020019092919050505061080e565b604051808215151515815260200191505060405180910390f35b60026020528060005260406000206000915054906101000a900460ff1681565b60036020528060005260406000206000915054906101000a900460ff1681565b60011515600360003373ffffffffffffffffffffffffffffffffffffffff1673ffffffffffffffffffffffffffffffffffffffff16815260200190815260200160002060009054906101000a900460ff1615151415156103d057600080fd5b60018060003373ffffffffffffffffffffffffffffffffffffffff1673ffffffffffffffffffffffffffffffffffffffff168152602001908152602001600020600083815260200190815260200160002060006101000a81548160ff0219169083151502179055507fbc4708dec4a51b472c7182f3f1d89297a6e992c8e05923997bd46391cfb981b5816040518082815260200191505060405180910390a150565b6000809054906101000a900473ffffffffffffffffffffffffffffffffffffffff1673ffffffffffffffffffffffffffffffffffffffff163373ffffffffffffffffffffffffffffffffffffffff161415156104cd57600080fd5b6001600360008373ffffffffffffffffffffffffffffffffffffffff1673ffffffffffffffffffffffffffffffffffffffff16815260200190815260200160002060006101000a81548160ff0219169083151502179055507f41e54a7a691fc991264d18e29b8b7f13738cb8d00c886e76b5165795a184ab5181604051808273ffffffffffffffffffffffffffffffffffffffff1673ffffffffffffffffffffffffffffffffffffffff16815260200191505060405180910390a150565b6000809054906101000a900473ffffffffffffffffffffffffffffffffffffffff1681565b60011515600360003373ffffffffffffffffffffffffffffffffffffffff1673ffffffffffffffffffffffffffffffffffffffff16815260200190815260200160002060009054906101000a900460ff16151514151561060f57600080fd5b60016002600083815260200190815260200160002060006101000a81548160ff0219169083151502179055507f44d80a438cb4fa3b5aedbe551ce3d9382e37f446917b783e1dee70a03b4180e3816040518082815260200191505060405180910390a150565b6000809054906101000a900473ffffffffffffffffffffffffffffffffffffffff1673ffffffffffffffffffffffffffffffffffffffff163373ffffffffffffffffffffffffffffffffffffffff161415156106d057600080fd5b600073ffffffffffffffffffffffffffffffffffffffff168173ffffffffffffffffffffffffffffffffffffffff1614151515610750576040517f08c379a0000000000000000000000000000000000000000000000000000000008152600401808060200182810382526000815260200160200191505060405180910390fd5b8073ffffffffffffffffffffffffffffffffffffffff166000809054906101000a900473ffffffffffffffffffffffffffffffffffffffff1673ffffffffffffffffffffffffffffffffffffffff167f8be0079c531659141344cd1fd0a4f28419497f9722a3daafe3b4186f6b6457e060405160405180910390a3806000806101000a81548173ffffffffffffffffffffffffffffffffffffffff021916908373ffffffffffffffffffffffffffffffffffffffff16021790555050565b60016020528160005260406000206020528060005260406000206000915091509054906101000a900460ff168156fea165627a7a72305820a7bf551d78ce5b25cdbf25d4e02c7ce7e4dea7957244fff75a42077fa818e1670029",
  "source": "pragma solidity ^0.5.0;\n\nimport \"./Ownable.sol\";\n\ncontract CertificateStorage is Ownable{\n\n    event DataEdited(bytes32 fileHash);\n    event IssuerEdited(address _newIssuer);\n    event CertificateRevoked(bytes32 fileHash);\n\n    mapping(address => mapping(bytes32 => bool)) public data;\n    mapping(bytes32 => bool) public revokeList;\n    mapping(address => bool) public issuers;\n\n\n    modifier onlyIssuer{\n        require(issuers[msg.sender] == true);\n        _;\n    }\n\n    constructor() public {\n    }\n    \n    function setData(bytes32 _fileHash) public onlyIssuer{\n        data[msg.sender][_fileHash] = true;\n        emit DataEdited( _fileHash);\n    }\n    \n     function setIssuer(address _newIssuer) public onlyOwner{\n        issuers[_newIssuer] = true;\n        emit IssuerEdited( _newIssuer);\n\n     }\n    \n    function revokeCertificate(bytes32 _fileHash) public onlyIssuer {\n        revokeList[_fileHash] = true;\n        emit CertificateRevoked( _fileHash);\n\n    }\n    \n}\n\n",
  "sourcePath": "/home/syed-fahad-hussain/Documents/Fahad's Personal/WebstormProjects/Ethereum/project/Sami-Project/cert/contracts/CertificateStorage.sol",
  "compiler": {
    "name": "solc",
    "version": "0.5.0+commit.1d4f565a.Emscripten.clang"
  },
  "schemaVersion": "3.0.2",
  "updatedAt": "2019-03-15T11:48:09.973Z",
  "devdoc": {
    "methods": {
      "transferOwnership(address)": {
        "details": "Allows the current owner to transfer control of the contract to a newOwner.",
        "params": {
          "_newOwner": "The address to transfer ownership to."
        }
      }
    }
  },
  "userdoc": {
    "methods": {}
  }
}